:0200000480007A
:10000000FD6293820240FD12E39F02FE374100022F
:1000100013010100B71100029381019DB7A5008073
:100020009385C5B537A60080130606DEB706000225
:100030009386061F39A083A2050023A056009105D0
:100040009106E3EAC5FEB70500809385850B370668
:1000500000801306862AB70600029386060039A0A0
:1000600083A2050023A0560091059106E3EAC5FE90
:10007000B70500029385454737160002130646D19F
:1000800021A023A005009105E3EDC5FEB702000203
:100090009382020C73905230B7000080E780600BAF
:1000A000B7000080E780600BB7000080E780404A1F
:0800B00073005010F5BF8280BF
:1000B8000000000000000000000000000000000038
:1000C8000000000000000000000000000000000028
:1000D8000000000000000000000000000000000018
:1000E8000000000000000000000000000000000008
:1000F80000000000000000000000000000000000F8
:1001080000000000000000000000000000000000E7
:1001180000000000000000000000000000000000D7
:1001280000000000000000000000000000000000C7
:1001380000000000000000000000000000000000B7
:1001480000000000000000000000000000000000A7
:100158000000000000000000000000000000000097
:100168000000000000000000000000000000000087
:100178006F004000130141F806C00AC20EC412C63F
:1001880016C81ACA1ECC22CE26D02AD22ED432D6CF
:1001980036D83ADA3EDC42DEC6C0CAC2CEC4D2C6BF
:1001A800D6C8DACADECCE2CEE6D0EAD2EED4F2D6AF
:1001B800F6D8FADAFEDC9700007E938060288290F9
:1001C80082401241A2413242C2425243E243724447
:1001D80082541255A2553256C2565257E257725897
:1001E80086481649A649364AC64A564BE64B764CC7
:1001F800865C165DA65D365EC65E565FE65F1301D9
:10020800C1077300203001A0411122C406C62A8408
:100218009750007EE780E002B70705009C4313076C
:10022800803E8507B357F502B3D7E7020D6713077A
:10023800779CB387E7022167130707D0B3D7E70294
:1002480019C4BE82FD12E39F02FE7D147DF8B24000
:10025800224441018280411122C406C62A84975053
:10026800007EE78000FEB70705009C431307803E29
:100278008507B357F502B3D7E7022947B387E702E3
:100288002167130707D0B3D7E70219C4BE82FD124E
:10029800E39F02FE7D147DF8B24022444101828032
:1002A8003D432A876373C3029377F700BDEFADE53B
:1002B800937606FF3D8ABA960CC34CC30CC74CC74D
:1002C8004107E36BD7FE11E28280B306C3408A067A
:1002D8009702000096966780A6002307B700A3063A
:1002E800B7002306B700A305B7002305B700A3048A
:1002F800B7002304B700A303B7002303B700A30282
:10030800B7002302B700A301B7002301B700A30079
:10031800B7002300B700828093F5F50F9396850008
:10032800D58D93960501D58D61B7939627009702D1
:10033800000096968682E78086FA9680C1171D8F00
:100348003E96E374C3F8A5B7411106C6EF3040796D
:100358005524EF30701EEF30B041EF40604903C7BD
:10036800410D938781B21183058B23A0070023A237
:10037800070023A4070023A607002388E700B2404C
:1003880041018280411122C437040500130404404E
:100398001C5006C693F7070299C3EF10C0261C50DD
:1003A800898BB5C73715080013050540EF10703461
:1003B80029C90545EF30207703C8A1AA938781B2E0
:1003C80093168501C297E1862382D70283C791AA33
:1003D800138781B213F687000DE629466385C600A8
:1003E8003546639AC6024297DD9B2302070223859E
:1003F80001AAA384F1AA3715080013050540EF10D8
:100408001030B7070500938707407D5798CFB24053
:100418002244410182801303900213061800639F4F
:10042800660013F72700F59B05EB9377F60F130784
:10043800700C6372F706238501AA75BF13030002C7
:10044800E355D3FE1303F002E38166FE1303800233
:100458006397660093E72700A384F1AAF9B713030B
:10046800B0036395660093E74700FDB79306600CF9
:1004780093E71700E3E206FF1375F50F9306F5F906
:1004880093F6F60FE5459377F60F63E6D5004297A6
:1004980001152302A7022385F1AAB1BF411122C485
:1004A80006C6138481B24D3593074006232A0400FB
:1004B800A30BF4009967232C040093874746231C59
:1004C800F4009307C40E23A0070023A2070023A467
:1004D800070023A60700238401AA03470401A38376
:1004E80001AA238301AA1305F00F23280400A3827D
:1004F80001AA2308E400238201AA232E0400232052
:100508000402EF3000633D2AEF30300B9D20EF10DE
:100518006005EF20C00FEF10F03CEF305025EF20C2
:10052800400AB12A1305F00FEF20305B130544028F
:10053800938591AAEF20007FB240224401454101F2
:10054800828037450800411191451305054006C6CC
:10055800EF40F038B2407D15133515001A054101FA
:1005680082803745080001469145130505406F40D4
:10057800B03701119147374508003EC08A85854745
:100588001305054006CE3EC402C202C6EF40D02481
:10059800C93FF24005618280138781B30347170082
:1005A80005EB411122C406C613750504138481B3F3
:1005B800054611E1014637450800914513050540F8
:1005C800EF409032A3050400B240224441018280EA
:1005D800828003C781B3011106CE2AC68947630802
:1005E800F700EF20007F3245F240056175B7F24011
:1005F80005618280411122C43707070006C6938728
:1006080041C213070740138541C298C323A80700B6
:1006180023AA070023AC0700EF40F012B755E80102
:10062800138541C293850580EF40D015B24022441E
:100638000547238AE1AA41018280014582808280A0
:1006480001458280411122C48145138401C41306E7
:100658000005138501C406C6A1319305C4020145EE
:10066800EF30806709E92244B2409305F00F1D4539
:1006780041016F207039B240224441018280938544
:1006880081B21385C1C56F40001F3571DEDE26CBF0
:10069800938401C42ACC130680048145138504057C
:1006A80006CFEAD822CD4AC94EC752C556C35AC149
:1006B800E2DCE6DAEED6ED36938501C42D461385E5
:1006C8001405EF601034E247138701C983860700D9
:1006D8003ACA93074002014D938B01C46390F642D6
:1006E8008547A388FB0423890B048D470549A30F7D
:1006F800F10283A74194B79C008001443ECE9387C2
:100708004C06814A014C014A81493ED045A4938454
:10071800FDFB93F4F40F6547E36B975A6245850731
:1007280090009305F103A30FF102EF106050E3036B
:10073800055A864C6685EF80406CEF508033EF7029
:10074800A052137BF50F5A85EF806053AA85668502
:10075800EF804007F245EF707058EF80006AEF5065
:100768006024EF7060504205930770044181638BE9
:10077800FD001306D0046384CD1C82578A04BE94FE
:10078800984002871307D003636667071307500270
:10079800636F67017947636D67052547636867037A
:1007A8000D4763646705E39A0952894985A01307D1
:1007B800ABFD1377F70FDD4663ECE602B7960080D2
:1007C8000A079386C60C36971843028713076BFFF0
:1007D8001377F70FD14663EDE600B79600800A0756
:1007E8009386C61236971843028711476306EB0AA9
:1007F800D144BDA81307B0056368670513079005C2
:10080800636D670D13070005E314EBFEA3886B0502
:1008180093066002054D631BDB049306C5FEC20602
:10082800C182F947E3E6D7FCB70710409387174022
:10083800B3D7D700858BCDDFA947B357F502938788
:10084800A7F8A388FB04B5A81307C0056302EB0447
:1008580013073BFA1377F70F8546E3EBE6F8130720
:10086800E005B30767412389FB04154D39C9DD4409
:10087800FA406A444A49BA492A4A9A4A0A4BF65BF4
:10088800665CD65C465DB65D2685DA440D6182807D
:1008980001E5E3940944854923886B051377DB0F49
:1008A800F1466307D7009306C005014DE310DBFC52
:1008B80001C52947E31EE5F2B307AB002388FB0413
:1008C800014DB3D7AA41858BE9CBD54455B79307DA
:1008D800FBFEA38AFB04094D51BF19E593076BFA88
:1008E800238AFB040D4DF1BF2947E313E5F01307F5
:1008F800A005E30FEBEE114DE9B75547B307674184
:10090800A389FB04194D9DB7E399093C130710030C
:100918006306EB00A947E31DF5EC8549238B3B05EE
:10092800214D8D4979BF9307ABFCA38BFB04254D63
:1009380035BFE31F05EA294D69B71D4D05BF05F908
:10094800A54663E066031D46636E6603894663F049
:1009580066039307DBFF93F7F70FE3E4F6F6314DF1
:100968008DB7F946E31FDBF4238C6B0531A06307D1
:100978000B000547E31AEBFE2D4DA1B78D47238CDD
:10098800FB04DDBF01476306DB0003C79B05136754
:100998000704A38CEB04354D2DB78547B397A70102
:1009A800B3E7FA00939A070193DA0A018347F10340
:1009B8006247B306F700838D0600E39A0DD46305FA
:1009C8000A006393090089499377040291CB03A72E
:1009D8004B07B797980093870768ED44E3CAE7E8A1
:1009E80063010912937714006381071403C73B0559
:1009F8008547631AF70003A5CB0583A5C194EF705B
:100A0800F02D23AEAB049377041089E783A7CB00BE
:100A180023A0FB0803C70B059147631BF7129377C5
:100A2800040463930712F144A1B523AA9B09136A2E
:100A38008A00354DB357A441858BE397072A93075E
:100A48001036B3D7A741858B81CB93050000668507
:100A5800EF70701FE34D05288547B397A701C18F35
:100A680013940701418099B723AE9B05014DD9B76F
:100A780023A09B07136C1C00054D6DBF23A29B0789
:100A8800136C2C00094D7DB723A49B07136C4C00F5
:100A98000D4D4DB723886B07114D69BF6685EF80F3
:100AA800E01223AAAB06154D71B723AC9B07194D6D
:100AB80051B723AE9B071D4DB5BF23A09B09214D00
:100AC80095BF83A581946685EF70D00EE34AA02078
:100AD80023826B09254DB9BF23A49B09136A1A0009
:100AE800294D89BF23A69B09136A2A002D4D99B762
:100AF80023A89B09136A4A00314D2DBF814701493C
:100B0800FDB603C72B0585476313F7028947E39CA6
:100B1800F9EE83C71B0513070005E386E7EEE384B8
:100B280007EE93771400E39007EED94491B383C797
:100B38001B00E39A07EC93771400E39907EA83A76D
:100B48000B0123AEFB04C1B51374F4FB42044180CE
:100B580003CB5B0563070B0885476308FB0802D0D6
:100B6800894C054B03C73B0585476305F7088D4747
:100B7800639CF90003C76B0585476317F700914726
:100B880093045002E316FACE41469385CB028808B7
:100B9800EF6020671387C1C693F70A203AD2C9E3EA
:100BA80003CD0B052947630EED081307C005630E37
:100BB800ED1C0D476398E92279476306ED2A130770
:100BC80050036306ED2C71476318ED2093850B06DF
:100BD8001945EF30601025C5631B0A28014D81496E
:100BE80031AA89473ED0854CB5BF85473ED0814C58
:100BF800094B8DBF524D83A5C1948144914DB35784
:100C08009A40858B89CB03258D03EF70300D83A522
:100C1800C194232CAD028504110DE392B4FF81BF6A
:100C280003C57B05994763F4A700F54491B183C7D1
:100C38006B00E387A7F68C08EF30000A35F19D4476
:100C480005B963140A00E94425B193770405E38CD8
:100C580007DC03A58B07EF80401AEF409061EF7027
:100C6800A0001375F50F9947E3E1A7FC83C70B07AD
:100C780051476389E7000947E39CE7B6937704087F
:100C8800E39807B6630E050E7D15137DF50F938562
:100C98000B066A85EF3040045DD183C70B075247C6
:100CA800DE8D3ECC814433569A40058A15CEE24704
:100CB800D146105F6399D70C83A5CD0303A5CD0159
:100CC8003ACE32D4EF7010302256B285EF70902FA2
:100CD8007247094608CB6399C40083A5CB04EF701B
:100CE800702E724723A4AB06850491471107910D16
:100CF800E39BF4FA1374F4FA4204418083C41B059D
:100D080093070005639CF418FD44E3130AB6937433
:100D18001900638004441374E4FD42044180638431
:100D280009001374F43F6317047C82C282C482C62C
:100D38006384044293FA6AFBC144E39B0AB283C703
:100D48000B05130750036384E700E39307B283A7F7
:100D5800CB0003C78B00D245BEC483C79B00C80025
:100D6800D98F2306F104EF006079AA84E31205B055
:100D7800414693858B081385CB01EF608048CDBC35
:100D880003CD7B0529B710CB85B7E30E0AEA524D90
:100D98005E878408814D3356BA41058A21C2484F7F
:100DA8008C403ACCEF70102283258D03EF70902190
:100DB800232CAD02894762476399FD0083A5CB04C4
:100DC800EF705020624723A8AB08850D91471107A3
:100DD800110D9104E391FDFC014D0DB7505F232CDB
:100DE800CD02E5B7E30A0ADC83C74B05D2445E8629
:100DF8003ED49C083ECC814DB355BA41858989EDD6
:100E08004C4E8CDCE247850D110691073ECC91478C
:100E18009104E393FDFE4DB393075003E304FDFEF5
:100E28009C5C3ECEA2578DEBE2474C5E32D688439F
:100E3800EF601069F245EF60B068AA8588DC094563
:100E48003256E391ADFC03A5CB0432CEEF60506778
:100E580023A8AB0872467DB7F245484E32CEEF6004
:100E6800306688DCC5BF93850B061D459DB3524788
:100E7800DE86814791453356FA40058A19E2D04EFD
:100E880010CB850791061107E397B7FEB1B703C7E3
:100E98001B058547F944E3F1E7F4D9BA8947E39894
:100EA800F9E689E4B3394001860995B503A5CB0570
:100EB80093050000EF70204AE30905C68D47638952
:100EC800F40063E097088547E38EF4FC1369490052
:100ED800E30B0AD6854D33979D01B3976D01D98FE2
:100EE8003377FA003ED493040002E303079813070C
:100EF8008B0093064B000A078A065E97DE96CC465F
:100F08002857EF70300C13878C0093864C000A0723
:100F18008A065E97DE962ACCCC462857EF70900A50
:100F28002ACE13770408A257630307164146938510
:100F38008B081385CB01EF60802121ED930410020B
:100F480005BA9307E008638EF40063E197049307FA
:100F5800C0086388F4009307D008E39AF4DA1369A9
:100F680009019384240793F4F40F854763E49700F9
:100F780013698900E3090ACC414693858B081385D8
:100F8800CB01EF60C01CE31405D84DBF9307F008F0
:100F9800E9B783C73B05639AB70103A5CB0783A5C8
:100FA800C194EF70A05323AEAB0683A4CB0783A5EF
:100FB80001952685EF708052A685EF702052E24594
:100FC800AA842E85EF708051AA852685EF70807FD0
:100FD800F245AA842E85EF706050AA852685EF70A9
:100FE800607E930500002A8CEF70E0459304200290
:100FF800E34005886285EF406066AA84F245624551
:10100800370C0080EF00305CAA8533459C00EF70F8
:10101800000603C71B058D47AA846314F700B34471
:10102800AC0003ACCB07930500006285EF70A041CC
:1010380063590500B7070080BD8CB3C7870123AE8D
:10104800FB06F2452685EF706049AA856245131CA8
:101058002B005E9CEF70007783A541951374F4F71D
:101068004204EF70A047E2452320AC062685EF70C6
:10107800E046F245139C2C005E9CEF60704483A50B
:1010880041954180EF7080452320AC0649B1B3F704
:10109800870193043002638D07FC83C73B0545989D
:1010A800420441806381B70993972C00B38DFB00FC
:1010B80083A50D067245131C2B005E9CEF70807093
:1010C80083250C06AA846245EF70C06FA685EF00E1
:1010D800904FAA8483A50D0603250C06EF00B04E99
:1010E800AA8523AEAB062A8C2685EF70A06D9314D3
:1010F800150083A5819585802685EF70A02BE35880
:10110800A0C083A541952685EF70C02AE348A0E2D8
:1011180083A5C1956285EF70603CA685EF70A0320B
:10112800E35705BE21BDD24783A5C1948144914DA3
:1011380033579C40058B09CB884B3ED4EF70003A5F
:10114800A25783A5C19488CB85049107E392B4FF85
:10115800A1BF1374E4CDD1B683C7410D898B95C364
:1011680083C71B050947FD1793F7F70F6374F7004B
:1011780013690904630B0A1C89476398F91C1369EE
:10118800090883A74B0723ACFB0083C72B05A38063
:10119800FB0081C7A1472306F10483A7CB0583A5DC
:1011A8000B0803A5CB0023A8FB002ECABEC2EF7014
:1011B800801AD2451374090401E59377090295C38F
:1011C80003C59B0019C993178901E18763C7070005
:1011D80019C093050000EF20D05683A70B0823A65B
:1011E800FB0001E483A7CB00BEC483C74B0803C53B
:1011F800AB05238AFB0083C79B006389A700A6452C
:10120800EF20305483C7AB05A384FB008347C10498
:1012180003C79B0003C59B05D98F2306F10483C729
:101228008B006388A700EFF0CFBA83C79B052384A0
:10123800FB008347C10403C78B00D98F03C70B0585
:101248002306F10491476316F70003A58B07EF0007
:10125800B00083C75B052382FB0083C73B0523815E
:10126800FB008D476397F90283C76B05A382FB00D8
:1012780089E79307000023A8FB0803A40B0903A52B
:10128800CB04A285EF70200D09C523A68B04EF308F
:10129800005B83C77B0503C76B00630BF700125520
:1012A80041468C082383FB00EF50B075EF3020597E
:1012B80083C74B0513076002A381FB0083C70B0597
:1012C800138401C4638FE7106368F70A13F7D70F15
:1012D800F1466300D70E29476380E70C83C71B05D7
:1012E800130700052380FB006384E7020947639125
:1012F800E902054A938981CC639C4711CC00138588
:1013080081CC452E4146CE851305C401EF50706F40
:1013180083C78B05A383FB00638C07D4EF10702B66
:1013280083C67B000D47938781B36395E61403C793
:10133800070089476307F7002145EF30E05CEF10AD
:10134800C07BA30304006FF0AFD203C79B00C14763
:10135800E319F7E283C70B00894613770904FD17E1
:1013680093F7F70F63E7F600E30D07E01369090247
:1013780009BDE31807E0DDBF1307C0056389E70669
:1013880013076006638BE70613078002E398E7F408
:101398009385CB011D4589A883C76B00E390A7F50A
:1013A8001255414693850B06EF50B065EF30204942
:1013B80035B78347C10493E717002306F104638612
:1013C8000900CC0013858B08ED24130A0406CC0011
:1013D8005285C5244146D2851305C401EF50706279
:1013E800F5BD9385CB011945EF20C078C5BD4146B1
:1013F80093858B081385CB0345BF9387CB0323AE17
:101408000B0223A2070023A4070023A6070079BF25
:1014180081EB8347C10493E717002306F104F9BD64
:10142800F91793F7F70F6365FA021359290013792F
:1014380019004AC0825803A7CB076688DA879386C3
:101448000B061386CB01CC00138581CCED2C5DBD3A
:101458008347C1044A86CC0093E74700138581CCB3
:101468002306F104212DE30F05E8E31345EBEFF024
:101478000FA179BD05472390EB0013074006A3830E
:10148800E7001967130747462394E70003C70700D7
:1014980023820B00A3810B0023830B0023940B00F2
:1014A80089476302F70292550145EF20F00263086D
:1014B80005F8EF30C038014593050000EF20B02152
:1014C8000145EFF06F8D2145EF1010589DBD854403
:1014D8006FF00FBA89446FF0AFB9E1446FF04FB9BC
:1014E800930460026FF0CFB8E5446FF06FB8914491
:1014F8006FF00FB8930440026FF08FB7DC454111CD
:1015080022C426C206C61CC183478500AA84138448
:10151800850393E747002304F50083C7410D93F73C
:10152800070295E72285A6856922138481B383473C
:10153800040081EFEF00B04009C9930700022300BF
:10154800F400EF20502EEF205022814731A0228551
:10155800EF300036BD4779D5B240224492443E85EB
:1015680041018280B74508004111930600040546F1
:10157800938505401305001006C6EF004068B7457F
:101588000800930600070546938505402145EF00AE
:101598000067B7450800814605469385054009451B
:1015A800EF00E065B240B7450800814605469385DF
:1015B8000540054541016F00806437450800411129
:1015C800930500101305054022C406C6EF303031DC
:1015D8001334150037450800A14513050540EF30C1
:1015E800103019E1136424003745080089451305B4
:1015F8000540EF30D02E19E113644400B240228533
:1016080022444101828037450800411193050010AA
:101618001305054006C6EF30902C37450800A14554
:1016280013050540EF30B02B3745080089451305F1
:101638000540EF30D02A13051009712B03C781B379
:101648008547630BF70083C761AA99E7192BB24056
:10165800054541016F30602FB24041018280411140
:1016680006C622C4EF30C02429C1938781B3054739
:10167800A381E70003C70700A147138481B3631D53
:10168800F7002145EF304028EF102047834714002A
:1016980089EF83470400EDFBE9210945EF30E02A93
:1016A8002244B24041016F104045B24022444101FA
:1016B8008280011122CC26CA4AC84EC606CE93871C
:1016C800C10783C78705AA8993F707022E84138960
:1016D800C107938481B381CB03C704009307000239
:1016E8006308F700AD3F03C7040089476306F704A2
:1016F800EF10A04083C71400A1E3EF00302911C503
:10170800EF00B07401451D23E5B7A2854E85EF00B3
:10171800503A1DE183478905898B99CF8347840017
:10172800C18B99CB4C406244F240D2444249B24901
:10173800414505616F20F000F2406244D2444249BD
:10174800B249056182805971D6CA939A2700EAC0C6
:10175800338D5601B3075601A2D403240D00A6D237
:10176800AE848C43E2C4428C0A0CCAD0CECE3689F1
:10177800AA89228586D63AC2D2CCDAC8328ADEC68F
:10178800E6C26EDE3ED0C68D6299EF606053B30745
:101798008A01832C09008C432AC866853ED2CE9ADA
:1017A800EF600052C2452ACA03A50A004E9C370BB7
:1017B8000080EF702001AA8AD24503250C0033442B
:1017C8008B00334B9B01EF60F07F2A8CD6852285F6
:1017D800EF60D050AA8CE2855A85EF603050AA8518
:1017E8006685EF60E04DE285AA8C2285EF60104F98
:1017F800D6852A8C5A85EF60704EAA856285EF607F
:10180800707C834B0107E685EF301065AA8A6384F4
:101818000B0883A50196EF60F0396348050083A59E
:1018280041965685EF60107AAA8A924503AC810CDE
:101838002E85EF60E048E285EF60D078E285EF60C2
:10184800F049EF30B06183A54195AA8C5685EF60C9
:10185800F0489245EF6090480605E6850581EF60FF
:101868001001EF30907CEF70603C93170501C18345
:101878003EC495EF2654B6500659664AD64A464B9A
:10188800B64B264C964C064DF25DA6854E85965471
:10189800F649656139BD83A58196EF60D03AE34684
:1018A800A0F883A541965685EF608041B5BF2245D3
:1018B80083CC8400EF70A03C93F78C00AA8B91CB6B
:1018C800AA85884093FC7CFFEF60504188C0238440
:1018D8009401DE8556858A0DEF606079B30CBA01F4
:1018E800CE9D83A50C002AC203A50D00B14DEF6063
:1018F800706DDE85EF60A07792452AD42E85EF6063
:10190800F03DAA8503A5C196EF60D06BAA8A83A58E
:1019180001971245EF60903C83A50195AA8B5685E7
:10192800EF60003AAA855E85EF60503B83A541953C
:101938002ACC5685EF60903A938781B32ACE854AA0
:10194800814B3ED6224793970A01C183E3F4E7F21D
:101958006380BB09E2452285850BEF603038F2458C
:101968002A8C5A85EF609037AA856285EF604035EA
:10197800F2452A8C2285EF607036E2452A845A8522
:10198800EF60D035AA852285EF60D0632A8493FB67
:10199800FB0F628BC2452285850AEF606032825751
:1019A800D24588C35A85EF60A0319257A25588C3A3
:1019B80003A50C00EF60C03023A0AC00A6855285BB
:1019C800CD39B25783C71700ADEB014585249DBFBC
:1019D8005685EF70C02A9245EF6050302A84EF3068
:1019E800105D2A8B2285EF305074832B0D00B707CA
:1019F80000802A8CB3CBFB0083270900DA855E853B
:101A08003EC6EF60B02D2A843245E285EF60102D86
:101A1800AA852285EF60C02AE2852A845E85EF6068
:101A2800F02BAA8B3245DA85EF60502BAA855E85AC
:101A3800EF6050592A8B814BB1BFB650265496544B
:101A48000659F649664AD64A464BB64B264C964C3A
:101A5800064DF25D6561828003C781B3011106CE30
:101A68002AC689476309F700EF10A0363245F240CD
:101A780081450561C5ACF24005618280011122CC27
:101A880052C406CE26CA4AC84EC6138A81B3034733
:101A98000A0089476305F70C2A89AE89B284EF10DA
:101AA800403383471A009DE313D534000589A30208
:101AB8000A00EF009037EF00B03715C11145EF204D
:101AC800D068EF1080030145EF0030360945F24039
:101AD8006244D2444249B249224A056182804A8519
:101AE800CE85EFF01FBD85470945138481B3238454
:101AF800F1AAEF207061EF10400083471400F9F756
:101B080001452D2283470400FDF703C781AA8547B5
:101B18006314F704C1888DCC4146938581B213853F
:101B280041C1EF50006E0145238401AAEF00F02F58
:101B3800EF00B07CEF20A0437523EF009028130539
:101B4800F00FEF105028034554003335A00041B77B
:101B58001545EF20905FC1BFA302F400E9B7014526
:101B6800BDB783C771AAC18BB9E74111414506C604
:101B7800EF209059EF206023EFE0BF9E938781B359
:101B880003C7070083C747009376C702998BD58F91
:101B980085C39147631AF70083C761AA194591C79E
:101BA800B24041016F20803C0D45EF20105ACDBF57
:101BB800B2404101828082800111AE872AC011475C
:101BC8008A853E8506CE02C63AC232C4EF30C0408E
:101BD800F24005618280B7570800938707C0C8D7CD
:101BE80082800111AE872AC08A853E8506CE02C250
:101BF80002C402C6EF30403EF240056182804111C6
:101C080022C426C206C63284B6847D3785478945F4
:101C18006307F40089478D456303F4008145224436
:101C2800B2402685924441016F30A04C6F30E02BC2
:101C380079714ECE52CC56CA06D622D426D24AD074
:101C48005AC85EC662C403C705009306D0022A8A32
:101C58002A9783470700AE89B28A6397D7048347D8
:101C6800170013092700054B814601470144014528
:101C780025469305E00F21489548938707FD93F77C
:101C8800F70F6364F60405071377F70F636AE80232
:101C980081C67D14620461843305150306053E95EB
:101CA80005098347F9FFD1BF9306B002130917004E
:101CB8006396D7008347170013092700014B6DB7B8
:101CC800E5F2050462046184E1BF6395B70099E217
:101CD8008546F9B739C3EF70A00693050000AA84BA
:101CE800EF60606711CD03AC4197FD5B63447405F9
:101CF800631B740583A581972685EF60207EAA84DF
:101D080063050B00B7070080BD8C3309494123A048
:101D18009A007D19238029010547B2502254925414
:101D28000259F249624AD24A424BB24B224C3A8596
:101D3800456182802685E2850904EF60207A620485
:101D4800AA84618465B74DDC83ABC1972685DE859F
:101D5800EF60C0787D149377F40F6204AA846184DD
:101D6800F5F779BF41114AC02E8983A5019806C6A7
:101D780022C426C2EF608076EF309013EF60106BBC
:101D8800131405014180938481B315C483C71400DB
:101D98009DE3631C0900EF0050567D1413052003D2
:101DA8004204EF3080144180CDB7EF00B00B83C7F9
:101DB8002400898BFDD3B240224492440249410158
:101DC80082806F308012411126C2AE84AA8506C671
:101DD80022C4EF60A0702A84A6852685EF60007073
:101DE800AA852285EF50D06D2244B2409244410129
:101DF8006F30D006011122CC26CA4AC84EC606CE7C
:101E080052C42A84930905012A8993040000032AED
:101E18000900930500005285EF60E05311C9D2858F
:101E28005285EF60A06BAA852685EF507069AA8459
:101E38001109E31E39FD2685EF305002AA85AA84D0
:101E480003A54198EF60A0222A890840CA85110499
:101E5800EF60C068232EA4FEE31934FFF240624409
:101E68004249B249224A2685D24405618280797165
:101E780022D403A4819852CC370A008026D24AD0B3
:101E88004ECE5EC606D656CA5AC82A89AE8981443D
:101E98007D1AC14BB387990083AA070093050000F8
:101EA8005685EF60404B1DC5B30799008843D6851A
:101EB800EF60E01B3375AA00EF6030742A8B22852F
:101EC800AE8AEF6090735A86D686EF305056EF6030
:101ED800307D2A849104E39F74FBB25022852254FA
:101EE80092540259F249624AD24A424BB24B456176
:101EF8008280484D158113451500058982805C4D07
:101F080093E707025CCD8280397156D226DA83C402
:101F180021AC52D406DE22DC4AD84ED65AD05ECE48
:101F280062CC66CA6AC86EC6014A91E0C14403CB56
:101F380001ACFD1493F4F40F63069B109307800320
:101F4800B387F402138481CD138981CD3E940C505C
:101F5800832BC4012E85EF50B0564C50EF600058CB
:101F6800AA852A845E85EF60004E635305005E846F
:101F780093078003B387F402CA9780CF414491C086
:101F880026847D141374F40F630E8B069307800365
:101F9800B384F402130C8003CA9483C701AC638929
:101FA8008706B30B8403228BCA9B11E0414483C785
:101FB80031AC7D141374F40F63948700EF20200371
:101FC800330B8B034A9B032DCB0103258B01EA8539
:101FD800EF60603815C583250B022E85EF50504EF3
:101FE80083254B02EF60804F8C4CEF50704DAA84D4
:101FF800AA856A85EF60003C6355A006232C9B00E8
:10200800DE8461BF83C731AC63946701EF10307E13
:1020180003C401AC93048003C147B30494020504CC
:102028001374F40FCA946313F400014403CC21AC75
:10203800014B930B8003C14C63188C0263040B00A3
:10204800238041ADF2506254D2544259B259225AB7
:10205800925A025BF24B624CD24C424DB24D216116
:102068008280232CAB0169BFB30A740383AD84015A
:102078006E85CA9A03AD8A01EA85EF60C03C635752
:1020880005028C502E85EF50B043CC50EF600045D0
:10209800EE85EF50F042AA84AA856A85EF60803108
:1020A8006356A00023AC9A00228A054BB307740339
:1020B800CA97CC4F884FEF60002A19E1228A054B56
:1020C80005041374F40F631394010144D684ADB767
:1020D800A38101AC238101AC0547A380E1AC238037
:1020E80001AC8280411113064002814513858105A8
:1020F80006C6EFE0EF9AB2404101D9BF03C731AC41
:1021080083C721AC6382E7029307170093F7F70FA1
:1021180041466393C700814783C501AC6394E500DA
:102128002380F1ACA381F1AC828083C721AC130773
:102138008003B387E702138581CD3E95828083C7EC
:1021480031AC03C721AC01456309F70013078003CD
:10215800B387E702138581CD3E95828083C731AC72
:102168004147850793F7F70F6393E700814703C754
:1021780021AC13050000630AF70013078003B38737
:10218800E702138781CDBA97884F828003C531ACA7
:1021980083C711AC1D8D133515008280411126C2ED
:1021A80006C622C483475501045913F7170005CF03
:1021B80003C501B4EF60B02C83A54197EF600032EE
:1021C800A685EF60A0312A8483A441982285A6853C
:1021D800EF60401E6343A0002684B240228522445B
:1021E800924441018280918B2A8491EF03C5F1B317
:1021F800EF60F02883A54197EF60402EAA852685D9
:10220800EF60C02DAA844054A6852285EF60A023E4
:10221800E34C05FA26844DBF797122D403C431AC4E
:1022280056CA83CA21AC4ECE83A981984AD052CCD3
:102238005AC806D626D25EC6138981CD130A8003F2
:10224800414B639F8A00B25022542320393B925459
:102258000259F249624AD24A424BB24B45618280E6
:10226800330544034A951D3FAA84AA854E85EF602D
:10227800801D635D0502CE854E85B3094403EF607A
:10228800E025AA85CA9983AB890223AEA9005E8599
:10229800EF60601B6354050023AE790105041374D5
:1022A800F40F631364010144A68961BFA6852685DE
:1022B800E9B77571DAD826C383C421AC93078003C4
:1022C80022C5B387F402D2DC138A81CDDED6E6D2EA
:1022D800AE8B130680038145AA8C3E9A528506C7A9
:1022E8004AC1CEDED6DAE2D4EAD0EECEEFD05FFB3A
:1022F80083C78B0003A74B00138481CDA30AFA0080
:10230800232AEA02898B41469305043899C39385A9
:1023180081B293098003B38934030810EF40706ECB
:102328000149814A138CC107914DA299B3078901CC
:1023380003AD0700B3872C018C436A85EF60001A50
:10234800EF60B02BEF307018930709018A9788C3A4
:102358001C10CA979C431D8D1357F541B347A7001E
:10236800998F33072A011CC303A709016373F70078
:102378003E8723A8E900EF609010EA85EF50304FC0
:102388001C18CA9788C393050000EF60C00B635AF6
:1023980005005685EF10F01C83C749015D8D238A1F
:1023A800A900850A93FAFA0F1109E391BAF91309FA
:1023B8008003338924030145229983270901B5CB7A
:1023C8000818EFF03FA32322A9020C181385C109AE
:1023D800EFF0FFA92320A9020C181385C108EFF01C
:1023E8001FA9834959012326A90293F71900ADC3F0
:1023F8002328A90203C721AC83C731AC6306F700C1
:1024080093F929006382090693078003B387F402CE
:1024180013070000A29798CF98D793078003B38734
:10242800F402A29703C9570113792900630B091015
:102438000545BA402A449A440A49F659665AD65A72
:10244800465BB65B265C965C065DF64D496182800C
:1024580083A50B0093F789002328B902C1DF032560
:102468004902EF60A00769B7930B04388149130943
:102478000000C14D1C18CE979C4303AD0B01910B76
:10248800BE856A853EC6EF606005AA854A85EF600D
:1024980060332A8932459C00EA85B38C3701EF60A6
:1024A800603223A0AC009109E396B9FD83A5C198D9
:1024B8004A8593090000EF50F06F6349A00683A591
:1024C80001994A85EF503078634A05068800EFF095
:1024D8007F928C001385C109EFF07F99AA8903A523
:1024E8004198CA85EF60002E83A54195EF50107F73
:1024F800EF30C01683258C042A894E85EF50107E54
:10250800CA85EF50B07DAA8903A54198CA85EF60B6
:10251800602BAA854E85EF50903593050000AA8957
:10252800EF5070726354050093090000930780030D
:10253800B387F402A29723A43703C5B583A981986A
:10254800F5B75285EFF09FC5032A043AAA89AA85F0
:102558005285EF50506F63530506D2855285EF5070
:10256800F07793078003B384F402A29403AA840249
:10257800C8CCD285EF5010646354A00023AE440148
:1025880041460C18130504392320343BEF407047AB
:1025980041460C0813050438EF40B04683C711AC18
:1025A800C1442381F1AC850793F7F70F6383970044
:1025B8003E89A38021ADEFF03F959DBDCE854E8528
:1025C80079BF138781B214439387810594C3544319
:1025D800D4C31447584794C7D8C7828083C721AC4F
:1025E80003C531AC63E7A7003D051D8D1375F50FD5
:1025F80082807D15DDBF411106C6EF10501F03C74D
:1026080031ACB2402380E1AC41016FF0FF8F411142
:102618000546B74508001305002006C6EFF0CFD9D8
:10262800B240238601AC41018280238601AC8280BE
:102638004111930500203745080006C6EF20302ACF
:10264800B24003C5C1AC41018280411106C6EFF01A
:102658001FAF11C5B240094541016F20E02AB240C1
:102668004101828083C761AA011122CC4AC806CEE3
:1026780026CA4EC6138481B385C393F4F70F268503
:10268800FD14854993F4F40F23003401EF00B039A9
:1026980063F79902EF20E02C83C771AA93F4F70F30
:1026A800638D071E93F704018DCB8547A300F400C3
:1026B800F2406244D2444249B249056182800545EC
:1026C800EF0090384145EF2020260145EFF00FD666
:1026D80083C771AAC18BF5DB75BF93F7140081CB53
:1026E8001305F00FEF0070760545EF20E02393F710
:1026F800840E6381071083470400139984011359DA
:10270800894113F7370071E393F7870295CB0347A5
:1027180024009307F00363E5E702EF10500D034729
:10272800040089472302F40093070002631AF700A4
:10273800634809008347240093E707F82301F4005E
:102748008347040081E705472301E40013F70404E5
:1027580011CB13F7070219E703472400136707048F
:102768002301E40013F7840019C77D476365F70068
:10277800C1472300F40093F70402A1CB1945EF00E9
:10278800B02C8347240013978701618763490702A8
:102798000347040093060004631FD70013F787005C
:1027A80011C78D9B93E727002301F40093070004CA
:1027B8002300F40029A093070008E319F7FE8347D4
:1027C800240093E707022301F40063510902034739
:1027D800040085476318F7008347240093E75700F0
:1027E8002301F400930700F82300F4001305800E7A
:1027F800EF20801393F72400B1CF93F78406A1EB61
:102808000347040093070004631DF700834724006F
:1028180013F7070219E713F707016309071E2300D7
:10282800040083470400638C071E13F7070105C3E0
:1028380003472400058B01CF41476392E71E834776
:10284800A400638E071C93E787002305F40009455D
:10285800EF20800D9188B1C083470400030724004E
:1028680093F7070D6386071E834734006392071E9C
:102878006342071EEFF03FD88347440013F7270051
:1028880019C703472400136717002301E400E59BD9
:102898002302F4001145EF20200983C751AA93F4BD
:1028A800F70FCDC3EF20000F13F714008345740012
:1028B8009307400611E3AE8713F7240001C7A90761
:1028C80093F7F70F13F7440001C7D91793F7F70FDA
:1028D80013F7840001C7850793F7F70F13F704016F
:1028E80001C7FD1793F7F70F9306800C3E8763F433
:1028F800F600130780FC9376F70F2947B68763F332
:10290800E600A94793F6040203468400130740062D
:1029180091E2328793F6040499C213072003E20474
:10292800E18463D3040065476394F500630CC70032
:10293800A303F4002304E400A3050400EFF0DF8DF3
:10294800EFF07FCB83C741AA93F4F70F6381071A8F
:10295800EF20600513F714008346940093074006A0
:1029680011E3B68713F7240001C7A90793F7F70FF8
:1029780013F7440001C7D91793F7F70F13F784002B
:1029880001C7850793F7F70F13F7040101C7FD1770
:1029980093F7F70F1306800C3E876374F60013074E
:1029A80080FC1376F70F2947B2876373E600A947BF
:1029B80013F7F70F6380E60203470400A304F4004B
:1029C80069EB938701C4CC4703C59700EF10A0506B
:1029D800A305040013F704028347040063050710E6
:1029E80041476392E7108347A4006392070E894723
:1029F8002305F4009307F00363E8970A6244F24062
:102A0800D2444249B24905616F10E06113F74700AB
:102A1800E30907E093E787002301F40019B52302CF
:102A28000400EFF0CFF105C18347240093F70704B2
:102A380099EBA1472300F40023010400EF10A05EE6
:102A4800EF10A05229B5230104002300040001B5AA
:102A5800635C070023020400EFF0CFE8EF10205179
:102A6800EFD0FFC1EFF0FFB58347240013F707024B
:102A780001CF93F7F70793E717002301F4009307B3
:102A880000042300F40039B52301040023000400E6
:102A980011B58347440093E787002302F4000DBF74
:102AA80081C793F78703A1C7138701C4034787002A
:102AB800938401C4937607041369070499C21379B0
:102AC800F70B4A85EFD05FAD238424010DA013F7DF
:102AD800170009C793E747002305F4009307F0039D
:102AE800E3E497FC29A01307F003E36B97FA034785
:102AF80004008D47E3FEE7BA11B7797122D406D6F0
:102B080026D24AD04ECE52CC56CA5AC85EC6EFF02C
:102B18007FB5938781B383C727006388070CEFF0DD
:102B28000FE2138481B32A8941E5938701C483C4E2
:102B3800970003C7870083A9C700D98C9387C1076B
:102B480083C787051389C107898B89C713050002C5
:102B5800EF105062930AF003130B0008930B000464
:102B6800138A01C483472400C9C30347140035EFFF
:102B780013F7170005CB0347040063F1EA12918BA2
:102B8800A1E793050000014523050400EF10A034D8
:102B98000145EFD07FA083472400F59B93E74700CA
:102BA8002301F400EFF01FAC0145EFF02F885DBF63
:102BB80083445501EFD0FF988329490393F4040314
:102BC800C98C93F4F40F9DBF631267052D45AD2D95
:102BD800930500000145EF1000300145EFD0DF9B61
:102BE800EF10C0388347140081CFB250225492545A
:102BF8000259F249624AD24A424BB24B456182803D
:102C0800EFF05FA60145EFF06F82E9BF631B770124
:102C1800EF10303E19E58347240093F7F7FD2301B1
:102C2800F4008347240013F787002DDF03479A0039
:102C380009CF898B99EB83478905898BA9C7834776
:102C4800440093E787002302F40083478A0091CF6A
:102C580083472400898B91EB13F5040CEFD0DF93A5
:102C680003A541988545EFF0EF8F8347240013F7BC
:102C78002700E31907F293E7070109452301F40048
:102C8800EF10904805B7CE8513F50403EF10A02484
:102C980003A501958545EFF0EF8C45BF8347A40058
:102CA800B5C313F7270009CF83C791C4B9C39305E8
:102CB80000000145EF10202285472305F400DDB50B
:102CC800B18BE38107EE83C791C489CF2945AD2B2A
:102CD80083478905898B8DC38347440093E7870021
:102CE8002302F4008347A400A18B81C70945EF1094
:102CF800B041230504007DB5CE8513F50403EF101C
:102D0800801DCDB783474400A18BE38D07E8CE85AE
:102D180013F50403EF10201C83474400DD9B2302B6
:102D2800F40049B583C7410D411122C426C24AC0E7
:102D380006C6A18BAA842E89138481B389CBEFE0C0
:102D4800DF8711C585471D452300F400F529834712
:102D5800040093F71708B9C70945FD2185472300E3
:102D6800F40083470900A18B9DC3EFF01FD9834767
:102D78001400B1EB238004008347090085452D45E5
:102D8800858B91E3014549210145EFE03FEAEFF0EA
:102D9800DF8BEFF09FD68347140095E70145EFE0FE
:102DA800FFE8C1B723000400EF10B02409C983C7A6
:102DB80071AA93E70702A383F1AAEFF01FD426852F
:102DC800EF10702379BFB240224492440249410176
:102DD8008280411122C426C206C6138481B3EFF053
:102DE800DF86A144EFF07FD18347140099EB0145BA
:102DF800EFE0DFE3EFF0AFB475F583470400E3835A
:102E080097FEB240224492444101828083A781AD5B
:102E180099C79386170023ACD1AC2380A700828082
:102E28005971D6CADAC8DEC6E2C4E6C2EAC086D696
:102E3800A2D4A6D2CAD0CECED2CC6EDEAA872E8D90
:102E4800930A0003130BA002930BC004130C000297
:102E5800A94C03850700630305241307500213894F
:102E680017006311E50803851700631155090385E9
:102E780027001389370085446317650B03240D0069
:102E880093074D00635504003304804089440305CB
:102E980009003E8D05099377F5FD639777010305D2
:102EA800090093E444000509630A051E1307000698
:102EB800AA876356A700930705FEE207E187130771
:102EC800F0046381E70E6343F70613073004638455
:102ED800E70C13074004638AE70E130720048946AA
:102EE8006383E70CEFF09FF2EA8949A81307D00241
:102EF8006306E500138927008144BDBF03852700C9
:102F08001389370089448DBF3304940305092A9433
:102F18000305F9FF130404FD930705FD93F7F70F65
:102F2800E374F7FE8DBF01442547FDB7130750052D
:102F3800638DE70813078005638BE70813073005DF
:102F4800E392E7FA832D0D0093094D0013FA24004C
:102F58006E85EF40603F2A8D93041D00631B0A00B5
:102F680063788D0013050002EFF05FEA268DEDB758
:102F7800268D03850D0011E563698D004E8DCA8786
:102F8800C9BD850DEFF09FE8EDB713050002EFF01E
:102F9800FFE7050DD5B703050D0093094D00EFF0C8
:102FA800FFE6E9BFA14613F7440093094D0015C396
:102FB8001306400403270D006396C70263540702F3
:102FC8003307E04093E4040131A8A946E9BFC146AC
:102FD800D9BF130740046395E70003270D00F9BF25
:102FE80003270D00130585F89D4719E19307700223
:102FF800100893F5F70F328D8147A5483378D7022B
:103008003A83338505013357D70263E50801131561
:1030180088016185130505032300A600938D170019
:103028006366D300050663918D07FD4713F7040116
:1030380001CF13870D021408B30DD7001307D00270
:103048002380EDFE938D270093F7140013050002EB
:1030580099C3130500036E8A898813071A0081E44F
:1030680063668A023A8AFD1D3307BD01030507001E
:10307800EFF0DFD9E3990DFEE3728AF01305000241
:10308800EFF0DFD8050ACDBFEE878DBF3AC62AC458
:10309800EFF0DFD7324722453A8AC1B7B6502654F7
:1030A80096540659F649664AD64A464BB64B264CBC
:1030B800964C064DF25D65618280011122CC26CACC
:1030C80006CE4AC84EC652C41387C10703478705B0
:1030D8002A849384C107058B1DEB03A94198130A21
:1030E8000401B79900800C404A85EF50203F83C700
:1030F80084059145858B91E38D451104EF10F00B04
:10310800630A8A001385091FEF10100BE9BF03A992
:103118004199F1B7F2406244D2444249B249224A45
:1031280005618280AA8705472E856386E700130715
:10313800F00F6394E7006F10300882802971232C08
:103148008110232A911023282111130901012A84AF
:103158002E852C12232E11102324C1122326D112BE
:103168002328E112232AF112232C0113232E1113F1
:103178002EC623AC21ADEFF0BFCA83A781ADCA85A7
:1031880022852380070023AC01ACEFF0BFF9832030
:10319800C1110324811183244111032901113161D3
:1031A80082802971232AF112232E1110232C8110D9
:1031B800232A91102326D1122328E112232C01134C
:1031C800232E11138D4763E9B7026C122A843285C6
:1031D80010082EC623ACC1ACEFF09FC483A781AD05
:1031E800B79500801008238007009385451F228526
:1031F80023AC01ACEFF09FF48320C11103248111AB
:1032080083244111316182802A862E8519E6B7957B
:103218000080938505206FF0FFF0B79500809385B7
:1032280085206FF0BFF1B795008041112A869385FC
:1032380045211305F00F06C6EFF05FF0B240130505
:10324800401F41016FE0FFB77D151375F50FA947C2
:1032580063E4A708B7970080938707180A053E9587
:103268001C41828737960080130606228D45054546
:103278006FF03FF33796008013064623C5BF379695
:10328800008013068624DDB7379600801306C6250E
:10329800F1BF3796008013064626C9BF37960080CF
:1032A80013060627E1B7379600801306C6277DBFA9
:1032B800379600801306C62855BF37960080130638
:1032C80086296DB7379600801306C62A45B7379604
:1032D80000801306062C59BF8280B795008093851D
:1032E800C52C6FF03FE41D71D6C286CEA2CCA6CA0B
:1032F8001384C107CAC8CEC6DAC05EDE62DC66DAED
:103308006AD86ED6D2C403460404B7950080AA844E
:103318009385C5336800EF10F03903463404B79538
:103328000080938545346800EF10D03803461404B4
:10333800B79500809385C5346800EF10B037034611
:103348002404B7950080938545356800EF109036C2
:1033580003468405B79500809385C5350982058A9B
:103368006800EF10303503468405B79500809385D3
:1033780045361982058A6800EF10D03303068405A4
:10338800B79500809385C5367D826800EF1090322E
:1033980003464404B7950080938545376800EF10CD
:1033A8007031B7950080938505382685EFF09FD753
:1033B80028448D4537990080EF102060930589389F
:1033C8002685EFF03FD6B79500809385C5382685CA
:1033D800EFF05FD568448D45930B8006EF10E05DF4
:1033E800930589382685EFF0FFD303468405B79502
:1033F800008093854539058A6800EF10B02B034695
:103408008405B79500809385053A1582058A68007A
:10341800EF10502A03468405B79500809385C53A76
:103428000D82058A6800EF10F02803468405B795D9
:1034380000809385853B1182058A6800EF109027EC
:1034480003469405B79500809385453C6800EF10C6
:103458007026B79500809385053D2685EFF09FCCB3
:10346800684C8D458149EF1040559305893826856C
:10347800EFF05FCBB79500809385853D2685EFF00B
:103488007FCA28508D45938AC107EF1000539305D2
:1034980089382685EFF01FC903564406B795008082
:1034A8009385053E6800EF10F020B795008093855E
:1034B800C53E2685EFF01FC728548D45094CEF10EF
:1034C800C04F930589382685EFF0DFC5B795008092
:1034D8009385453F2685EFF0FFC428488D45379BE7
:1034E8000080EF10804D930589382685EFF09FC343
:1034F800B79500809385C53F2685EFF0BFC2684821
:103508008D458D4CEF10604B930589382685EFF07B
:103518007FC103468405B7950080938545400582A1
:10352800058A6800EF10101983AD8199054D138441
:10353800CBFF568A228693050B416800638389076F
:10354800638A99076389A905EF10D01603250A0035
:103558008D45EF1080469305893826850504EFF0E0
:103568007FBC110AE31874FD850993F9F90F914797
:10357800930BA400E39DF9FAF6406644D644464905
:10358800B649264A964A064BF25B625CD25C425DBB
:10359800B25D25618280EF10F01103250A018D4587
:1035A8004DBFEF10301103250A02EE85EF40302C95
:1035B8008D4545B7EF10101003250A03B7070080A3
:1035C8008D453D8D79B71571B7950080A2CD93854E
:1035D80085412A84A80886CFEF30505D938541C184
:1035E8006800EF1040296800EFF03FAD6C08A808AC
:1035F800EF30303B03C6D1B3B79500806808938598
:103608000542EF10300B6C08A808EF309039AC0871
:103618002285EFF03FB1FE406E442D61828041115A
:1036280022C426C23284AE84B79500802A86938548
:10363800454A228506C6EFF07FB0A2852244B240F3
:103648002685924441016FF03FBC65714146232EA7
:103658003117938581B2AA892808232611182324B3
:1036680081182322911823202119232C4117232A5A
:103678005117232861172326711723248117232222
:1036880091172320A117EF30D0372C082810EF10FE
:10369800801EB79500809385454E2809EF3010515C
:1036A80083C781B3C144138481B363EAF4003797B5
:1036B80000808A071307C71ABA979C4382871307A3
:1036C8000004638FE72413070008638CE7281307B7
:1036D80000026383E7229387C10703CA470413895B
:1036E800C107137A1A0063030A288347C400638F4B
:1036F8000726B7950080938585532809EF30702AEF
:103708002810EFF09F9BAC002809EF3090298347E1
:103718004904898B85CB8D4781466385F9004E85A1
:103728007126AA8636C6EFE07FEBB246B7950080D1
:103738002A8693858554A800EF10C077AC00280925
:10374800EF30302683478905B7950080858B9385B0
:1037580045554E8563800728EFF0DF9CEF10000881
:103768008545EF10802583A5C1940848EF403010A7
:103778008145EF108024AC002809EF309022EFD06B
:10378800DFE3AA84EF10E0062A89EFE07FEAB3E7D7
:103798002401C98F93F7F70F2A8AD5CBB7950080F4
:1037A8009385C5552809EF30D01F63090A00B795DE
:1037B8000080938545562809EF30B01EA1C893F7BD
:1037C800140081CBB7950080938585562809EF3082
:1037D800501D93F7240081CBB79500809385C5567B
:1037E8002809EF30101C93F7440081CBB79500806F
:1037F800938505572809EF30D01AA18881C8B79555
:103808000080938545572809EF30B01963010904F2
:103818009377190081CBB795008093858557280940
:10382800EF3030189377290081CBB79500809385C6
:10383800C5572809EF30F0161379490063090900C4
:10384800B7950080938505582809EF309015834770
:10385800C40063870718FD172306F4008347B400E4
:10386800638E071AFD17A305F400B79500809385AA
:10387800855A2809EF30F0122C094E85EFF09F8AFF
:103888008320C118032481188324411803290118AF
:103898008329C117032A8117832A4117032B01178C
:1038A800832BC116032C8116832C4116032D011678
:1038B80059618280B79500809385854E2809EF303D
:1038C800500E11BDB79500809385054FC5BF834441
:1038D800240093978401E18763C00702B7950080AD
:1038E8009385454F28098588EF30B00BADC0B79553
:1038F80000809385C54FD9B7B7950080938545500B
:1039080075BFB7950080938585504DBFB7950080EA
:103918009385055165B7B79500809385855179BF23
:10392800B7950080938505522809EF3090078347A3
:10393800240013F7870011C7B79500809385855237
:10394800B5BF13F7470009CB93F70702CDD3B79557
:103958000080938505509DB7B79500809385C55223
:10396800B1BFB79500809385055389BF938B01C478
:10397800130B8103930A81028144138C01C4094DFE
:10398800914C83A5CB0303A5CB02EF4060332320E2
:10399800AB00AA856397A4010325CC04EF4040320D
:1039A800AAC0631A0A0003A50A0083250B00EF408A
:1039B800706123A0AA00850493F4F40F910B110BF6
:1039C800910AE39094FDE3160AD2B7950080938597
:1039D800055425B3EFF00FF5EF005060814551B362
:1039E80083470400254793F7C70791C37547834763
:1039F800B4002306E40081E78547A305F400B795E2
:103A08000080938545582809EF30A0792818EFF0F1
:103A1800CFEAAC002809EF30C07889B583470400A5
:103A2800254793F7C70791C34D478346840003464C
:103A38007400A305E40003479400B79500809385BC
:103A4800C558A800EF100047AC002809EF30607592
:103A58000D26AA84EFC0FFAEB3E7A40093F7F70FD3
:103A68002A84E38407E0B79500809385C55928091F
:103A7800EF30207399C885476395F402B7950080A5
:103A8800938505582809EF30C07113740404E30EB8
:103A980004DCB79500809385455A2809EF3060709B
:103AA800E9B3B79500809385055AE9BF9307F5FFF9
:103AB80093F7F70F138741AE3E97834607001387A6
:103AC80081AEBA9783C7070013F5F60F63E8D700EE
:103AD800130565051D8D1375F50F82807D15DDBFF6
:103AE80037150800411101478146314693055011A9
:103AF8001305054006C6EF10E003B2400945410131
:103B08006F10A067AA8537150800411113050540F5
:103B180006C6EF10200BB240371508001305054004
:103B280041016F10A00837150800130505406F10F4
:103B3800A00985476306F5009307F00F6316F500A3
:103B480003C781AE2382E1AE8280011122CC06CE6A
:103B58002A842EC6EFF0EFA79306900CB306D40282
:103B680062443246F2401307800C894535450561A9
:103B78006FC0FFAC011122CC06CE2A842EC6EFF00E
:103B88004FA5C546B306D40262443246F2404147C7
:103B98009145254505616FC09FAA13070007814617
:103BA8001386C107A14505456FC07FA9011122CC25
:103BB80006CE26CA4AC8937715002A84D1C39387AC
:103BC800C10729472386E70603A7019A239C070410
:103BD800F8CF03A7419AB8D31307A00F2392E7069B
:103BE80003A74198B8D703A74197B8C703A7819AF5
:103BF800F8C703A7C19AB8CB13070000F8CB03A7EF
:103C0800019B98C3D8C398C7D8C703A7419B98CB33
:103C1800D8CB98CFD8CF03A7819B98D3D8D398D7A0
:103C2800D8D703A7C19B98DBD8DB98DFD8DF370745
:103C380000FA2907B8C305472382E704EFF0FFF528
:103C48009377240085C302C002C202C402C681441D
:103C58002149268585048A8593F4F40FEFF09FF1B6
:103C6800E39924FF9377440091C7930500043545F1
:103C7800EFC0BF9C218819C86244F240D24442492F
:103C8800930500043D4505616FC03F9BF2406244C7
:103C9800D2444249056182809306900CB306D5024E
:103CA800411122C42E8426C21307800CAA84094617
:103CB800B545228506C6EFC0BF9809ED26852300C5
:103CC8000400A285EFF07FE80145B2402244924407
:103CD800410182800545D5BFC546B306D5024111CD
:103CE80022C42E8426C24147AA840946BD4522859E
:103CF80006C6EFC0FF9405E1414681452285EFC025
:103D08002FDA2685A285EFF0FFE60145B24022446E
:103D18009244410182800545D5BF41111307000730
:103D28008146214685451385C10706C6EFC05F91C8
:103D3800B240014541018280411106C6EFF0FFFD06
:103D480011ED85451D45EFF02FCC1305F00FEFF071
:103D5800FFE5B240054541016FF0EFD8B24041019F
:103D6800828011C57D151335150012058280114515
:103D7800828037450800411185651305054006C650
:103D8800EF10E03505478147631DE500374508001A
:103D9800896513050540EF10803485476313F500E6
:103DA8008947B2403E854101828037450800014677
:103DB8008565130505406F10203301118567374568
:103DC80008003EC08A8585471305054006CE3EC4D7
:103DD80002C202C6EF1040203745080089678A856D
:103DE800130505403EC0EF10201F9387C107EC4B19
:103DF800A84BEF40301DAA8503A5419CEF40202722
:103E080023AAA1AEEFF07FFAF2400561828001118A
:103E18009387C10726CA52C4E44B03AA07054EC6B6
:103E280056C2AA8AD28526854AC806CE22CC5AC04E
:103E3800138981B3EF400058034B9900938981B3EC
:103E4800635305025A85EF40906383A54197EF407D
:103E5800E068D685EF4080682A84AA855285EF40BD
:103E6800805E6340A00223A849011305F00FF240C9
:103E78006244D2444249B249224A924A024B0561FD
:103E88008280A2852685EF40E052634105029305B2
:103E980000002285EF40204C11E5930700002328FD
:103EA800F900F1B7232899000545D1B7A68523283D
:103EB80089002285EF40101183A541AFEF400062D1
:103EC800EF10B01683A54198EF30905FEF40105681
:103ED8001375F50F69BF411122C406C626C24AC030
:103EE800938781B383C7170081EFAA84138481B3B2
:103EF80011ED930700001CC8EFF03FEBA305040089
:103F0800B24022449244024941018280C1472E892D
:103F180001466303F5000546374508008965130522
:103F28000540EF10601C83C7410D898B99C7930723
:103F380000026394F400130900004A85EFF03FED96
:103F480075BF03C781B3011106CE2AC62EC489479F
:103F5800630AF700EFE0FFE7A2453245F24005614A
:103F68006FF07FF7F24005618280828082808280D4
:103F78007971B74508001305004006D6EFD07FC613
:103F8800B74508000545EFD0DFC5B745080013055C
:103F98000010EFD01FC5B74508000945EFD07FC412
:103FA800B74508001145EFD0DFC3B74508002145E4
:103FB800EFD03FC3B745080093850540130500209F
:103FC800EFD03FC2B7270800938707C03EC248001A
:103FD800930700303EC402C62318010002CA02CC6F
:103FE800230E0100EF108060B250456182804111BC
:103FF80022C426C283A441B006C68DC09387C10ED1
:1040080003C7970E83A5471013671700A384E70E0D
:104018002E85EF40A04C88CC23A201B0B2402244A8
:104028009244410182805971D2CC86D6A2D4A6D2BC
:10403800CAD0CECED6CADAC8DEC6E2C4E6C2EAC064
:104048006EDE938781B383C74700858B63900766CD
:1040580083A7C19C138A81B33ED683C7D1B003C757
:10406800B1B06305F76403A741B083474A005DE335
:10407800918B6385071AEFE04F8B23A2A1B0AA8921
:10408800630605629387C10E83C4970E138DC10E14
:1040980013F4140063070418A3040D0E83AA09027D
:1040A80003A541951309000023202D11D685EF3073
:1040B800107C83474A0083A449022A8413F7270007
:1040C800630F072483A989018947AA85230EFD0E5A
:1040D8004E85EF40A040AA852685EF40A06ECA8590
:1040E8002A84EF40403663570522D6855685EF303F
:1040F800303DA685EF40803EAA854E85EF40806C16
:10410800EF10C0552326AD1083474A0093E7870078
:104118002302FA0003C7C1B09387C10E83C6870E76
:1041280083AC41B0131D37003387A7012302D7049E
:1041380003A74C0283A5870F1384C10E3A853ACE94
:10414800EF404068930500002AD2EF40C02F635526
:104158000500930700003ED283270411032C841026
:10416800834AC40F3EC683274411B24583294410AD
:104178003E853EC8EF40201E894711C185473ED481
:104188008327041013070000014B3ECA8327C4107D
:10419800814D3AC43ED0F2473EC283A4819C26CCCE
:1041A8008547638CFA408D47638DFA2E638E0A38F3
:1041B80083A50C022685EF406032CE852A8BEF401E
:1041C80080286359050283A541955A85EF4000313F
:1041D800AA854E85EF40005FA685EF402030AA856E
:1041E8001245EF40205E2A89AA855245EF40A02556
:1041F80063470534D2451245EF40C05CAA85EF30CD
:10420800302CAA840255CE85EF30902BAA852685BE
:10421800EF30F065AA848259524971AEEFD03FF26F
:10422800A9BD83478D0E1547850793F7F70F63835D
:10423800E7003E84E147B307F40213070D072304A0
:104248008D0E41463E9723A0E1B083C64901EA9707
:104258002382D7088147B386F9009442B305F70053
:1042680091078E0694C1E398C7FEE147B307F402AD
:1042780003A5090113173500EA9723A0E708EF40C3
:10428800302C83A549022328AD0EEF30505EAA8555
:10429800232AAD0E3255EF30905D93070000232698
:1042A800FD0E83474A0013F78400232CAD0E898B3B
:1042B800D98FB1CB8325CD10DD982322BD102E8553
:1042C800EF40C02123ACA900A3049D0EE1473304AD
:1042D800F40283C7410D898B6A94A3020408E38F13
:1042E80007DA83C7590193F70702E38907DA83A539
:1042F800090303A54198EF3090578547232CAD104B
:10430800A302F40861BB03A58901EF10203523221D
:10431800AD106DBF23208D1023262D11F5B3230E6C
:104328000D0E23289D10918BD1EBEFD03FE32A8906
:10433800EF10C0322326AD1003A541B0EFD01FE621
:10434800AA852A8BEF40801903AC41B0AA84AA85BC
:10435800832A8C01832C4C025685EF40A0056352BA
:10436800A008A6855685EF40E045A285EF400017D6
:10437800AA856685EF4000452328AD109305000007
:10438800EF40600C6340A00483250C028947230E8C
:10439800FD0E2E85EF30D012E685EF402014AA8559
:1043A8005685EF402042EF10602B83479D0E232651
:1043B800AD1093E78700A304FD0EB9B31305000001
:1043C8002A898DBFCA852685EF40C03FA285EF4068
:1043D800E010232AAD1023246D118D47230EFD0E06
:1043E80025B3CA855685EF40E03DA285EF40000F12
:1043F800E685EF30F00C83A54195EF40200E93053C
:104408000000832DCD10AA89EF30D07A6354A0081C
:10441800CE856685EF30107A635CA006CA8526854E
:10442800EF40403AA285EF40600B232AAD10CE85BD
:10443800EF406001635A050223246D11A685568555
:10444800EF30707103290D11854749D9D685268526
:10445800EF404037A285EF406008AA854A85EF40C3
:1044680060362328AD104DB183250C0223283D1159
:10447800232A3D112E85EF30B004CE85EF4000068B
:10448800CA85EF30F003EF10601D2324AD10ADB9DD
:104498008947A9B7930700002328FD102324BD11DD
:1044A800A5B183A50C022685EF4040032A8BE2853F
:1044B8004E85EF402031DA85EF30F0786340A00672
:1044C800B2457245054B854DEF40C02FAA85EF30A8
:1044D800207FAA84CE856285EF30807EAA852685D6
:1044E800EF30F0383249AA84E289854A2245A68508
:1044F800EF30007D2AC4AA856245EF30B06B63595E
:10450800A00EA2456245EF40E02BAA845245CA8519
:10451800EF3070736354050E4AC259B183A54195B3
:104528005A85EF30B07BAA854E85EF40A029A68535
:10453800EF30D07AAA851245EF40C0282A89DA855B
:104548004E85EF402028BDA083A50C022685EF30BC
:10455800F07883A541952A8BEF305078CE85EF30DF
:104568002076A685EF309077AA851245EF40802502
:104578002A89AA853245EF30F0636359A002B24513
:104588007245054B854DEF40E023AA85EF30407317
:10459800AA84CE856285EF30A072AA852685EF3081
:1045A800102DAA84A25A3249E28989B7DA854E8544
:1045B800EF300071AA89054B15BFA6856285EF30DB
:1045C800F071AA851245EF40E01F2A89AA85424565
:1045D800EF30505EE35CA0F0C2451245854D894A34
:1045E800EF40401EE285EF309028AA844249FDBD85
:1045F80092554A85EF30105C6349A00C63040B00A8
:104608002322341163840D00230E540F83A701B0B5
:1046180003C7570183474A00A18BD98F95CF03C59C
:104628005C011375050355C983A44C0301CF832589
:10463800841103254410EF30706AAA852685EF306F
:10464800F069AA842685EFF08FFC83474A00230E81
:10465800A410DD9B2302FA008347C4118325440F6D
:10466800330BA4012303FB044A85EF303067AA8982
:10467800EF100004AA840325040FEF106003A68539
:10468800AA8AEF402014EF40605A131C0501135CFE
:104698000C0123108B0563170C0483474A0013F79A
:1046A800270029C393E717002302FA00B6502654BF
:1046B80096540659F649664AD64A464BB64B264C96
:1046C800964C064DF25D6561828083A5819C6245AA
:1046D800EF30005FA2452ACC3DB5930700002328A0
:1046E800FA00A5B78325C40E2245EF30605D2A8BFA
:1046F800CE855685EF40000DAA855A85EF303017D4
:1047080083A5019DAA8AEF30705DEF00707AEF40B3
:10471800E0519307F03163EAA700B307A401A3822D
:1047280007041317050141831DA81307F063854784
:104738006378A70085679387F7C7B3B7A70089078A
:104748003307A401331CFC00A302F7043355F5001A
:1047580023108705C1671387F7FFE364F5FCB307E8
:10476800A4012391E70403C7B1B099469307170042
:1047780093F7F70F6393D70081472386E1B0A385AA
:10478800F1B083A741B0CE852328940E23A2270336
:104798002685EF402003D685EF3050542326A40EFB
:1047A80003250410CA85EF30103BE318058A9305EA
:1047B80000004A8503444A00EF30D03F6357A00009
:1047C8001364140023028A00D5B593774400EDFBE7
:1047D80023A201B0EFD09F926FF03F8883C781B3C7
:1047E8001305000093F7C70799C303A5011F82802B
:1047F800828001458280411122C426C206C62A84CD
:104808008144A2852685EFF02FC905E12300040025
:1048180005469D452285EFE09FE091C4B2402244C1
:104828009244410182808544E9BF83070400F5D79B
:1048380085452285EFB07FE5AA850546E1BF411190
:1048480006C6EFE00FD9B240238201B4410182804D
:10485800411122C4139425002295084106C6EF4051
:1048680000429387C107A2978C43EF305000B240B3
:10487800224441018280011122CC26CA4AC84EC670
:1048880006CEAA842E89014491499375F40F4A856E
:10489800EFF01FFC93172400A69788C30504E316BE
:1048A80034FFF2406244D2444249B24905618280F1
:1048B800011122CC26CA4AC852C406CE4EC62A893D
:1048C8001384C1078144414AB307990083A90700AB
:1048D800930500004E85EF30F02D6345A0020C587B
:1048E8004E85EF305036634F050091041104E39D67
:1048F80044FD0145F2406244D2444249B249224A49
:10490800056182800545FDB7411122C406C62A8487
:10491800EF00F00583C771AAB24033E5870022444F
:10492800A383A1AA41018280411122C406C62A8418
:10493800EF00F00383C771AAB2401345F4FF224485
:10494800E98FA383F1AA41018280411122C406C6DE
:104958002A84EF00D001B240238381AA2244410176
:104968008280411106C6EF009000B240238301AA5D
:1049780041018280411122C406C62A84EF00207FAB
:1049880083C741AAB24033E5870022442382A1AA03
:1049980041018280411106C6EF00607DB240A382CA
:1049A80001AA41018280411106C6EF00407CB24055
:1049B800238201AA41018280F1A9797126D2AE84AD
:1049C8009305000022D406D64AD04ECE52CC2A8473
:1049D800EF307027635905001305D002EFF08F926E
:1049E800B70700803D8C03AA41942689854963EB6B
:1049F800290993D714007957B387E702A69793F745
:104A0800F70F99C783A5C1972285EF30302D2A84E7
:104A180083A5419522850144EF30802AEF40001B91
:104A2800294735E9B3B784003389844093C917000F
:104A38001379F90F014691E34A869305000333057C
:104A48008100EFB0FF85814763830900CA873E94E0
:104A58001374F40F639D8400938704011384140076
:104A6800130700038A972388E7FE1374F40F3309AA
:104A7800810039E0B250225492540259F249624AF4
:104A8800456182802285D285EF30502579192A84A4
:104A98001379F90FA9BF930704019306140033840F
:104AA8002700B377E502938707032308F4FE3355FD
:104AB800E50213F4F60FB5B7631694001305E00288
:104AC800EFF04F840345F9FF7D141374F40FEFF0F2
:104AD8006F837D1979BF0111B717080006CE02C48C
:104AE80002C6938707406312F502B7070500094716
:104AF800D8CF930700063EC085473EC28A85374512
:104B08000800D929F24005618280B72708009387F9
:104B18000780E319F5FEB70705001147D8CF9307BB
:104B280000303EC03745080085473EC28A851305D8
:104B38000540C1BF011122CC26CA4AC84EC652C47C
:104B48002A8406CE2E89B284368ABA89EFF0BFF855
:104B5800BD47014563FE27032320040023262401C3
:104B6800FD575CCC2322440193E71400232434012D
:104B780013F744001CC0A1885C4C054501C713D538
:104B88006701058991CC6DD99396A700E3D606FEF7
:104B9800F2406244D2444249B249224A05618280C5
:104BA80061DDFDB7484D198105898280411122C414
:104BB80006C62A842285EFF0FFFE6DDDB24022444E
:104BC800410182800CD58280485142054181828012
:104BD8009317050137150800C183130505401CD537
:104BE8006FF0DFFC411122C406C62A8403050400C5
:104BF80009E5B2402244410182800504EFF05FFDDF
:104C0800F5B75971D6CADAC8DEC6E2C4E6C2EAC048
:104C180086D6A2D4A6D2CAD0CECED2CC6EDEAA87F1
:104C28002E8D930A0003130BA002930BC004130CE0
:104C38000002A94C03850700630F052213075002E1
:104C4800138917006311E5080385170063115509D7
:104C5800038527001389370085446317650B0324F0
:104C68000D0093074D0063550400330480408944C8
:104C7800030509003E8D05099377F5FD63977701D4
:104C88000305090093E4440005096306051E13079C
:104C98000006AA876356A700930705FEE207E18787
:104CA8001307F004638DE70C6343F706130730041A
:104CB8006380E70C130740046386E70E130720049C
:104CC8008946638FE70AEFF0BFF0EA8959A0130716
:104CD800D0026306E500138927008144BDBF038520
:104CE80027001389370089448DBF330494030509CD
:104CF8002A940305F9FF130404FD930705FD93F7B0
:104D0800F70FE374F7FE8DBF01442547FDB713077E
:104D180050056389E708130780056387E7081307C9
:104D28003005E392E7FA832D0D0093094D0013FA3D
:104D380024006E85EF2040612A8D93041D006315C1
:104D48000A00636B8D00268D6E85EFF0BFE9636BFB
:104D58008D004E8DCA87F9BD13050002EFF05FE79D
:104D6800268DE1BF13050002EFF09FE6050DC5B7DC
:104D780003050D0093094D00EFF09FE5D9BFA1464B
:104D880013F7440093094D0015C313064004032785
:104D98000D006396C702635407023307E04093E4AB
:104DA800040131A8A946E9BFC146D9BF1307400489
:104DB8006395E70003270D00F9BF03270D001305CE
:104DC80085F89D4719E193077002100893F5F70FCE
:104DD800328D8147A5483378D7023A833385050158
:104DE8003357D70263E50801131588016185130558
:104DF80005032300A600938D17006366D3000506FC
:104E080063918D07FD4713F7040101CF13870D0246
:104E18001408B30DD7001307D0022380EDFE938D3D
:104E2800270093F714001305000299C31305000324
:104E38006E8A898813071A0081E463668A023A8AAF
:104E4800FD1D3307BD0103050700EFF07FD8E39987
:104E58000DFEE3708AF013050002EFF07FD7050A14
:104E6800CDBFEE878DBF3AC62AC4EFF07FD6324752
:104E780022453A8AC1B7B650265496540659F6497F
:104E8800664AD64A464BB64B264C964C064DF25DC2
:104E98006561828039712ED24C1006CE32D436D656
:104EA8003AD83EDA42DC46DE2EC6EFF09FD5F24015
:104EB80021618280397122CC2A832E852C1006CE5E
:104EC8003EDA32D436D63AD842DC46DE23AE61B07A
:104ED8002EC6EFF01FD383A7C1B123AE01B0238044
:104EE8000700F24062442161828017B3FF816700A6
:104EF80063260CC905471C416397E500984713676B
:104F0800070298C7828098471377F7FDDDBF4CC921
:104F180005471C416397E50098471367070498C73E
:104F2800828098471377F7FBDDBF0CCD05471C41FE
:104F38006397E50098471367071098C782809847DA
:104F48001377F7EFDDBF1841B707070093870740CE
:104F58006318F70241110C4906C622C4232407002E
:104F68002A84EFF01FF94C482285EFF05FFA0C4CC9
:104F78002285EFF09FFBB240224401454101828027
:104F88000545828085472302F5002303F500930732
:104F9800401FB3C7F50237170300130707D41CC512
:104FA8008D47B387F502B3C7E7022316F5009307C9
:104FB800803EB3C5F50293073003B385F502B747C2
:104FC8000F009387072433C7F502B3E5F50291C1B3
:104FD8000507A302E5008280B747080093870740CA
:104FE8002A886304F508B757080093870780630485
:104FF800F50A37470800630DE50A05458280331E28
:105008001F013376DE0129C683A345008843139325
:10501800180033966F001346F6FF13F43300718DB2
:1050280033146400418D88C3638B5302638C03027D
:10503800084303AEC500718D331E6E003365C5018C
:1050480008C38842698E884533156500498E90C229
:10505800850833D51E0145F5324441018280232657
:10506800C801F9B72324C801E1B7B71605003717F7
:105078000500B7170500938646C1130707C1938734
:10508800C7C083AE05008148054F8D4F914233D587
:105098001E0105ED8280B716050037170500B71702
:1050A8000500938606C21307C7C1938787C1D1BF7E
:1050B800B716050037170500B7170500938686C091
:1050C800130747C0938707C06DBF331E1F01337690
:1050D800DE0119E2850865BF411122C635B70841CE
:1050E8006D8D3335A000828019E24CC182800CC1DD
:1050F8008280935645009D4763E9D70683A841B24D
:10510800139826003D47331707011346F7FF3376F8
:10511800160123A2C1B203A641B233150501798D48
:10512800518D23A2A1B283A741B2375708001307B4
:1051380007C05CC38547B397D70093F6150085C2AF
:105148005CCF93F6250091CE5CCB37570800918948
:10515800130707C089C95CD35CC7014582801CD38B
:10516800CDB71CCFDDB71CD7C5BF05458280856785
:1051780093870780F3B747308280B7070500938786
:10518800074088C78280B7070500DC5305472165BB
:105198008D8BF9176376F7003755E80113050580FD
:1051A800828018410111B727080022CC06CE02C41C
:1051B80002C6938707C02A846319F706B707050054
:1051C8002147D8CF0347450099476307F7000347AE
:1051D80065008547631CF700930700023EC08A8577
:1051E8008947374508003EC2EFF01FDF03478401B7
:1051F8008547631DF700930700063EC08A858947E7
:10520800374508003EC202C4EFF01FDD1848854745
:10521800631DF700930700083EC08A858947374514
:1052280008003EC202C4EFF03FDB1840B727080071
:10523800631AF706B70705004147D8CF034744006C
:1052480099476307F700034764008547631DF70024
:10525800930700103EC08A858947374508003EC23B
:1052680002C4EFF07FD7034784018547631DF70029
:10527800930700303EC08A858947374508003EC2FB
:1052880002C4EFF07FD518488547631DF7009307E0
:1052980000403EC08A858947374508003EC202C49F
:1052A800EFF09FD31840B727080093870740631C87
:1052B800F706B707050013070002D8CF03474400D5
:1052C80099476307F700034764008547631EF700A3
:1052D8008567938707803EC08A85894737450800D8
:1052E8003EC202C4EFF05FCF034784018547631EC7
:1052F800F7008967938707803EC08A8589473745C5
:1053080008003EC202C4EFF03FCD18488547631C31
:10531800F70089673EC08A858947374508003EC23D
:1053280002C4EFF07FCBF2406244056182801841ED
:105338001C4BF99B1CCB82804111A303B50022C4EE
:1053480026C206C6AA842E84EFF07FFE9840060483
:10535800B2405C479244E59B5D8C40C722444101C2
:105368008280411122C426C206C62302B500AA843F
:105378002E84EFF0DFFB99479840631FF4005C47E9
:105388002244B24093E717005CC783C574002685A2
:10539800924441016FF05FFAB7070500B72608008D
:1053A8009C5B938606C0372608006313D702FD76F8
:1053B8009386F61FF58F2604C18FB70605009CDA81
:1053C8005C47B2402244F99B5CC792444101828009
:1053D8006317C700E576FD16F58F3204F1BFB726CF
:1053E800080093860640E31AD7FCB786FCFFFD1633
:1053F800F58F3E04D1B7411126C22303B500AE8410
:1054080022C406C62A84EFF09FF289C88547638FB5
:10541800F400B2402244924441018280144037078C
:1054280080FF7D17DC46F98FDCC6E5B71840B70664
:1054380080005C47D58F5CC7E9BF411122C406C60E
:10544800834545002A84EFF0DFF183456400228517
:105458002244B24041016FF01FFA411126C22304D1
:10546800B500AE8422C406C62A84EFF05FEC89C872
:105478008547638FF400B240224492444101828000
:1054880014403707C0FF7D17DC46F98FDCC6E5B747
:105498001840B70640005C47D58F5CC7E9BF41118B
:1054A800A304B50022C426C206C6AA842E84EFF03F
:1054B8001FE8944049777D17DC463604B240F98FDF
:1054C8005D8CC0C62244924441018280411123056B
:1054D800B50022C426C206C6AA842E84EFF03FE592
:1054E80094403707FAFF7D17DC464604B240F98F2F
:1054F8005D8CC0C622449244410182804111A305BB
:10550800B50022C426C206C6AA842E84EFF03FE264
:1055180094403707F8FF7D17DC464E04B240F98FF8
:105528005D8CC0C622449244410182804111230609
:10553800B50022C426C206C6AA842E84EFF03FDF37
:105548009C400E04B240D84792441D9BD8C7D84708
:10555800598CC0C72244410182804111A306B5007D
:1055680022C426C206C6AA842E84EFF05FDC9C40C3
:105578001A04B240D84792441377F7F3D8C7D847EC
:10558800598CC0C7224441018280411122C426C2DD
:1055980006C6AA842E84EFF09FD994403707E0FF0F
:1055A8007D17DC46B2409244F98F37072000798C8A
:1055B800C18F2244DCC6410182804111A302B5009B
:1055C80022C426C206C6AA842E84EFF05FD6944071
:1055D80037E7FDFF1307F7DFDC462604B240F98FF3
:1055E8005D8CC0C62244924441018280411106C6A6
:1055F80022C42A84EFF0FFBA2285EFF05FD3228518
:10560800EFF0BFE3834554002285EFF01FFB83458D
:10561800C4002285EFF09FF18345D4002285EFF086
:10562800DFF3834584002285EFF03FE38345940050
:105638002285EFF0DFE68345A4002285EFF01FE91D
:105648008345B4002285EFF07FEB4C482285224445
:10565800B24041016FF07FF36F003024411122C442
:1056680026C22A8406C67921AA84A2852285EF301B
:10567800205201E9930500002285EF20D05C6348A1
:105688000500B24022442685924441018280EF10F1
:10569800F03693071002930500001CC12E85EF20F9
:1056A800101DB2402244AA8426859244410182807A
:1056B80001119317150026CA93D4870122CC4AC832
:1056C80006CE4EC6938414F859472A8413D9170076
:1056D8006348970852C42A8A63CD040456C2B70A9D
:1056E80080001389FAFF33599940B377A900AA8932
:1056F800C9CB97B5FF8183A5E5CAEF20605C930508
:105708000000EF20304B635EA00663568000B3DADA
:105718009A40338A8A00F24062441349F9FFB37908
:105728004901924A224AD24442494E85B24905610A
:10573800828097B5FF8183A5E5C6AA89EF204058E6
:1057480093050000EF2010476357A004634B04043F
:1057580063050904224A97B9FF8183A969BF11A883
:10576800B707807FAA896366F900AA85EF204055AC
:10577800AA89F2406244D24442494E85B249056141
:105788008280F2406244224A924AD24442494E857B
:10579800B24905618280224AE9BF224A9309000082
:1057A800C9BF224A97B9FF8183A989BFD9B7011117
:1057B80022CC370400809307F4FF3717493F06CE01
:1057C800E98F130787FD637CF7023707807F63E95A
:1057D800E700AA85EF20107FF240624405618280CD
:1057E8002C00EF0030220D8985476304F5028947B4
:1057F800B245630CF5000DE52245852BF1BF6244E7
:10580800F2409305000005618DA32245B92B218D37
:10581800E1B7B24522450546EF008075218D6DBF81
:1058280022450546EF00C07445BF011193171500C6
:1058380026CA93D4870122CC4AC806CE4EC6938482
:1058480014F859472A8413D91700634B970856C28E
:1058580052C4AA8A63CC0404370A80001309FAFFE9
:1058680033599940B377A900AA89ADC397B5FF8189
:1058780083A545B3EF20C04493050000EF20903383
:105888006356A00463560400335A9A40B30A8A0048
:10589800F24062441349F9FFB3795901224A924A06
:1058A800D24442494E85B2490561828097B5FF814D
:1058B80083A545AFEF20C04093050000EF20902F4F
:1058C8006351A0049309000063410404224A924AE8
:1058D800F2406244D24442494E85B2490561828011
:1058E800B707807FAA89E365F9FEAA85EF20403DC6
:1058F800F2406244AA89D24442494E85B2490561C0
:105908008280224A924AA289E1B763190900224A91
:10591800924A97B9FF8183A9A9A85DBF224A924AF2
:1059280097B9FF8183A949A865B7011122CC37042B
:1059380000809307F4FF3717493F06CEE98F130716
:1059480087FD637DF7023707807F63E9E700AA8553
:10595800EF205067F2406244056182802C00EF001E
:10596800700A0D8985476307F5028947B245630EBA
:10597800F5000DE522450546E52BE9BF6244F240F6
:105988000146930500000561E5A322450546CD23A0
:10599800218DC9B7B2452245C92E6DBF2245F126D2
:1059A800218D4DBF13D745411377F77F130817C0D3
:1059B800CD48AE872A8663C8080563400802B70544
:1059C8001000FD15B3D50541B3F6F500C98E2A8739
:1059D800BE8899EE3A85C6858280B70600807D56D6
:1059E800ED8E01476302C808B6883A85C68582806D
:1059F800B7060800B3D60641BE9693C5F5FFED8EEF
:105A08000147B688DDB713033003635503039306D4
:105A180000402A87AE88E31FD8FA41112A86AE864D
:105A280006C6EF103020B2402A87AE883A85C68570
:105A3800410182801307D7BEAE86FD55B3D5E50078
:105A48006D8D3287BE8859D533030341054533151B
:105A580065003307C5006374A7009386170093C5D4
:105A6800F5FF6D8FB68851B7B707F03FDD8EB68862
:105A7800ADBF93D6454193F6F67F138616C04D48C1
:105A8800AE876342C802370700806D8F634F0604F4
:105A9800B706F0FFB3D6C640B3F7B600D98F0147B3
:105AA8003A85BE858280130830032A876353C8026B
:105AB80093060040E316D6FE41112A86AE8606C636
:105AC800EF105016B2402A87AE873A85BE8541014D
